{
    "_format": "hh-sol-artifact-1",
    "contractName": "ChessMates",
    "sourceName": "contracts/ChessMates.sol",
    "abi": [
        {
            "inputs": [],
            "stateMutability": "nonpayable",
            "type": "constructor"
        },
        {
            "anonymous": false,
            "inputs": [
                {
                    "indexed": true,
                    "internalType": "address",
                    "name": "owner",
                    "type": "address"
                },
                {
                    "indexed": true,
                    "internalType": "address",
                    "name": "approved",
                    "type": "address"
                },
                {
                    "indexed": true,
                    "internalType": "uint256",
                    "name": "tokenId",
                    "type": "uint256"
                }
            ],
            "name": "Approval",
            "type": "event"
        },
        {
            "anonymous": false,
            "inputs": [
                {
                    "indexed": true,
                    "internalType": "address",
                    "name": "owner",
                    "type": "address"
                },
                {
                    "indexed": true,
                    "internalType": "address",
                    "name": "operator",
                    "type": "address"
                },
                {
                    "indexed": false,
                    "internalType": "bool",
                    "name": "approved",
                    "type": "bool"
                }
            ],
            "name": "ApprovalForAll",
            "type": "event"
        },
        {
            "anonymous": false,
            "inputs": [
                {
                    "indexed": true,
                    "internalType": "address",
                    "name": "previousOwner",
                    "type": "address"
                },
                {
                    "indexed": true,
                    "internalType": "address",
                    "name": "newOwner",
                    "type": "address"
                }
            ],
            "name": "OwnershipTransferred",
            "type": "event"
        },
        {
            "anonymous": false,
            "inputs": [
                {
                    "indexed": true,
                    "internalType": "address",
                    "name": "from",
                    "type": "address"
                },
                {
                    "indexed": true,
                    "internalType": "address",
                    "name": "to",
                    "type": "address"
                },
                {
                    "indexed": true,
                    "internalType": "uint256",
                    "name": "tokenId",
                    "type": "uint256"
                }
            ],
            "name": "Transfer",
            "type": "event"
        },
        {
            "inputs": [
                {
                    "internalType": "address",
                    "name": "owner",
                    "type": "address"
                }
            ],
            "name": "OwnedTokens",
            "outputs": [
                {
                    "internalType": "uint256[]",
                    "name": "",
                    "type": "uint256[]"
                }
            ],
            "stateMutability": "view",
            "type": "function"
        },
        {
            "inputs": [
                {
                    "internalType": "address",
                    "name": "to",
                    "type": "address"
                },
                {
                    "internalType": "uint256",
                    "name": "tokenId",
                    "type": "uint256"
                }
            ],
            "name": "approve",
            "outputs": [],
            "stateMutability": "nonpayable",
            "type": "function"
        },
        {
            "inputs": [
                {
                    "internalType": "address",
                    "name": "owner",
                    "type": "address"
                }
            ],
            "name": "balanceOf",
            "outputs": [
                {
                    "internalType": "uint256",
                    "name": "",
                    "type": "uint256"
                }
            ],
            "stateMutability": "view",
            "type": "function"
        },
        {
            "inputs": [],
            "name": "cost",
            "outputs": [
                {
                    "internalType": "uint256",
                    "name": "",
                    "type": "uint256"
                }
            ],
            "stateMutability": "view",
            "type": "function"
        },
        {
            "inputs": [],
            "name": "currentSupply",
            "outputs": [
                {
                    "internalType": "uint256",
                    "name": "",
                    "type": "uint256"
                }
            ],
            "stateMutability": "view",
            "type": "function"
        },
        {
            "inputs": [
                {
                    "internalType": "uint256",
                    "name": "tokenId",
                    "type": "uint256"
                }
            ],
            "name": "getApproved",
            "outputs": [
                {
                    "internalType": "address",
                    "name": "",
                    "type": "address"
                }
            ],
            "stateMutability": "view",
            "type": "function"
        },
        {
            "inputs": [],
            "name": "hidden",
            "outputs": [
                {
                    "internalType": "bool",
                    "name": "",
                    "type": "bool"
                }
            ],
            "stateMutability": "view",
            "type": "function"
        },
        {
            "inputs": [],
            "name": "hiddenMetadataUri",
            "outputs": [
                {
                    "internalType": "string",
                    "name": "",
                    "type": "string"
                }
            ],
            "stateMutability": "view",
            "type": "function"
        },
        {
            "inputs": [
                {
                    "internalType": "address",
                    "name": "owner",
                    "type": "address"
                },
                {
                    "internalType": "address",
                    "name": "operator",
                    "type": "address"
                }
            ],
            "name": "isApprovedForAll",
            "outputs": [
                {
                    "internalType": "bool",
                    "name": "",
                    "type": "bool"
                }
            ],
            "stateMutability": "view",
            "type": "function"
        },
        {
            "inputs": [
                {
                    "internalType": "address",
                    "name": "userAddress",
                    "type": "address"
                }
            ],
            "name": "isWhitelisted",
            "outputs": [
                {
                    "internalType": "bool",
                    "name": "",
                    "type": "bool"
                }
            ],
            "stateMutability": "view",
            "type": "function"
        },
        {
            "inputs": [],
            "name": "maxMint",
            "outputs": [
                {
                    "internalType": "uint256",
                    "name": "",
                    "type": "uint256"
                }
            ],
            "stateMutability": "view",
            "type": "function"
        },
        {
            "inputs": [
                {
                    "internalType": "uint256",
                    "name": "mintAmt",
                    "type": "uint256"
                },
                {
                    "internalType": "address",
                    "name": "sendTo",
                    "type": "address"
                }
            ],
            "name": "mintForAddress",
            "outputs": [],
            "stateMutability": "nonpayable",
            "type": "function"
        },
        {
            "inputs": [
                {
                    "internalType": "uint256",
                    "name": "mintAmt",
                    "type": "uint256"
                }
            ],
            "name": "mintNFT",
            "outputs": [],
            "stateMutability": "payable",
            "type": "function"
        },
        {
            "inputs": [],
            "name": "name",
            "outputs": [
                {
                    "internalType": "string",
                    "name": "",
                    "type": "string"
                }
            ],
            "stateMutability": "view",
            "type": "function"
        },
        {
            "inputs": [],
            "name": "onlyWhitelisted",
            "outputs": [
                {
                    "internalType": "bool",
                    "name": "",
                    "type": "bool"
                }
            ],
            "stateMutability": "view",
            "type": "function"
        },
        {
            "inputs": [],
            "name": "owner",
            "outputs": [
                {
                    "internalType": "address",
                    "name": "",
                    "type": "address"
                }
            ],
            "stateMutability": "view",
            "type": "function"
        },
        {
            "inputs": [
                {
                    "internalType": "uint256",
                    "name": "tokenId",
                    "type": "uint256"
                }
            ],
            "name": "ownerOf",
            "outputs": [
                {
                    "internalType": "address",
                    "name": "",
                    "type": "address"
                }
            ],
            "stateMutability": "view",
            "type": "function"
        },
        {
            "inputs": [],
            "name": "renounceOwnership",
            "outputs": [],
            "stateMutability": "nonpayable",
            "type": "function"
        },
        {
            "inputs": [],
            "name": "reveal",
            "outputs": [
                {
                    "internalType": "bool",
                    "name": "",
                    "type": "bool"
                }
            ],
            "stateMutability": "view",
            "type": "function"
        },
        {
            "inputs": [
                {
                    "internalType": "address",
                    "name": "from",
                    "type": "address"
                },
                {
                    "internalType": "address",
                    "name": "to",
                    "type": "address"
                },
                {
                    "internalType": "uint256",
                    "name": "tokenId",
                    "type": "uint256"
                }
            ],
            "name": "safeTransferFrom",
            "outputs": [],
            "stateMutability": "nonpayable",
            "type": "function"
        },
        {
            "inputs": [
                {
                    "internalType": "address",
                    "name": "from",
                    "type": "address"
                },
                {
                    "internalType": "address",
                    "name": "to",
                    "type": "address"
                },
                {
                    "internalType": "uint256",
                    "name": "tokenId",
                    "type": "uint256"
                },
                {
                    "internalType": "bytes",
                    "name": "_data",
                    "type": "bytes"
                }
            ],
            "name": "safeTransferFrom",
            "outputs": [],
            "stateMutability": "nonpayable",
            "type": "function"
        },
        {
            "inputs": [
                {
                    "internalType": "address",
                    "name": "operator",
                    "type": "address"
                },
                {
                    "internalType": "bool",
                    "name": "approved",
                    "type": "bool"
                }
            ],
            "name": "setApprovalForAll",
            "outputs": [],
            "stateMutability": "nonpayable",
            "type": "function"
        },
        {
            "inputs": [
                {
                    "internalType": "uint256",
                    "name": "newCost",
                    "type": "uint256"
                }
            ],
            "name": "setCost",
            "outputs": [],
            "stateMutability": "nonpayable",
            "type": "function"
        },
        {
            "inputs": [
                {
                    "internalType": "bool",
                    "name": "state",
                    "type": "bool"
                }
            ],
            "name": "setHidden",
            "outputs": [],
            "stateMutability": "nonpayable",
            "type": "function"
        },
        {
            "inputs": [
                {
                    "internalType": "string",
                    "name": "hiddenUri",
                    "type": "string"
                }
            ],
            "name": "setHiddenMetadataUri",
            "outputs": [],
            "stateMutability": "nonpayable",
            "type": "function"
        },
        {
            "inputs": [
                {
                    "internalType": "uint256",
                    "name": "newMaxLimit",
                    "type": "uint256"
                }
            ],
            "name": "setMintLimit",
            "outputs": [],
            "stateMutability": "nonpayable",
            "type": "function"
        },
        {
            "inputs": [
                {
                    "internalType": "bool",
                    "name": "state",
                    "type": "bool"
                }
            ],
            "name": "setReveal",
            "outputs": [],
            "stateMutability": "nonpayable",
            "type": "function"
        },
        {
            "inputs": [
                {
                    "internalType": "string",
                    "name": "newUriPrefix",
                    "type": "string"
                }
            ],
            "name": "setUriPrefix",
            "outputs": [],
            "stateMutability": "nonpayable",
            "type": "function"
        },
        {
            "inputs": [
                {
                    "internalType": "string",
                    "name": "newUriSuffix",
                    "type": "string"
                }
            ],
            "name": "setUriSuffix",
            "outputs": [],
            "stateMutability": "nonpayable",
            "type": "function"
        },
        {
            "inputs": [
                {
                    "internalType": "bool",
                    "name": "state",
                    "type": "bool"
                }
            ],
            "name": "setWhitelistOnly",
            "outputs": [],
            "stateMutability": "nonpayable",
            "type": "function"
        },
        {
            "inputs": [],
            "name": "supply",
            "outputs": [
                {
                    "internalType": "uint256",
                    "name": "",
                    "type": "uint256"
                }
            ],
            "stateMutability": "view",
            "type": "function"
        },
        {
            "inputs": [
                {
                    "internalType": "bytes4",
                    "name": "interfaceId",
                    "type": "bytes4"
                }
            ],
            "name": "supportsInterface",
            "outputs": [
                {
                    "internalType": "bool",
                    "name": "",
                    "type": "bool"
                }
            ],
            "stateMutability": "view",
            "type": "function"
        },
        {
            "inputs": [],
            "name": "symbol",
            "outputs": [
                {
                    "internalType": "string",
                    "name": "",
                    "type": "string"
                }
            ],
            "stateMutability": "view",
            "type": "function"
        },
        {
            "inputs": [
                {
                    "internalType": "uint256",
                    "name": "token",
                    "type": "uint256"
                }
            ],
            "name": "tokenURI",
            "outputs": [
                {
                    "internalType": "string",
                    "name": "",
                    "type": "string"
                }
            ],
            "stateMutability": "view",
            "type": "function"
        },
        {
            "inputs": [
                {
                    "internalType": "address",
                    "name": "from",
                    "type": "address"
                },
                {
                    "internalType": "address",
                    "name": "to",
                    "type": "address"
                },
                {
                    "internalType": "uint256",
                    "name": "tokenId",
                    "type": "uint256"
                }
            ],
            "name": "transferFrom",
            "outputs": [],
            "stateMutability": "nonpayable",
            "type": "function"
        },
        {
            "inputs": [
                {
                    "internalType": "address",
                    "name": "newOwner",
                    "type": "address"
                }
            ],
            "name": "transferOwnership",
            "outputs": [],
            "stateMutability": "nonpayable",
            "type": "function"
        },
        {
            "inputs": [],
            "name": "uriPrefix",
            "outputs": [
                {
                    "internalType": "string",
                    "name": "",
                    "type": "string"
                }
            ],
            "stateMutability": "view",
            "type": "function"
        },
        {
            "inputs": [],
            "name": "uriSuffix",
            "outputs": [
                {
                    "internalType": "string",
                    "name": "",
                    "type": "string"
                }
            ],
            "stateMutability": "view",
            "type": "function"
        },
        {
            "inputs": [
                {
                    "internalType": "uint256",
                    "name": "",
                    "type": "uint256"
                }
            ],
            "name": "whiteList",
            "outputs": [
                {
                    "internalType": "address",
                    "name": "",
                    "type": "address"
                }
            ],
            "stateMutability": "view",
            "type": "function"
        },
        {
            "inputs": [
                {
                    "internalType": "address",
                    "name": "",
                    "type": "address"
                }
            ],
            "name": "whiteListAddressBalance",
            "outputs": [
                {
                    "internalType": "uint256",
                    "name": "",
                    "type": "uint256"
                }
            ],
            "stateMutability": "view",
            "type": "function"
        },
        {
            "inputs": [
                {
                    "internalType": "address[]",
                    "name": "usersWhitelist",
                    "type": "address[]"
                }
            ],
            "name": "whitelistUsers",
            "outputs": [],
            "stateMutability": "nonpayable",
            "type": "function"
        },
        {
            "inputs": [],
            "name": "withdraw",
            "outputs": [],
            "stateMutability": "nonpayable",
            "type": "function"
        }
    ],
    "bytecode": "0x608060405260405180602001604052806000815250600890805190602001906200002b9291906200039f565b506040518060400160405280600581526020017f2e6a736f6e00000000000000000000000000000000000000000000000000000081525060099080519060200190620000799291906200039f565b5067011c37937e080000600b55612710600c556005600d556000600e60006101000a81548160ff0219169083151502179055506001600e60016101000a81548160ff0219169083151502179055506001600e60026101000a81548160ff021916908315150217905550348015620000ef57600080fd5b506040518060400160405280600a81526020017f43686573734d61746573000000000000000000000000000000000000000000008152506040518060400160405280600581526020017f43484553530000000000000000000000000000000000000000000000000000008152508160009080519060200190620001749291906200039f565b5080600190805190602001906200018d9291906200039f565b505050620001b0620001a4620001fc60201b60201c565b6200020460201b60201c565b620001f66040518060400160405280601a81526020017f697066733a2f2f5f5f4349445f5f2f68696464656e2e6a736f6e000000000000815250620002ca60201b60201c565b62000537565b600033905090565b6000600660009054906101000a900473ffffffffffffffffffffffffffffffffffffffff16905081600660006101000a81548173ffffffffffffffffffffffffffffffffffffffff021916908373ffffffffffffffffffffffffffffffffffffffff1602179055508173ffffffffffffffffffffffffffffffffffffffff168173ffffffffffffffffffffffffffffffffffffffff167f8be0079c531659141344cd1fd0a4f28419497f9722a3daafe3b4186f6b6457e060405160405180910390a35050565b620002da620001fc60201b60201c565b73ffffffffffffffffffffffffffffffffffffffff16620003006200037560201b60201c565b73ffffffffffffffffffffffffffffffffffffffff161462000359576040517f08c379a0000000000000000000000000000000000000000000000000000000008152600401620003509062000476565b60405180910390fd5b80600a9080519060200190620003719291906200039f565b5050565b6000600660009054906101000a900473ffffffffffffffffffffffffffffffffffffffff16905090565b828054620003ad90620004a9565b90600052602060002090601f016020900481019282620003d157600085556200041d565b82601f10620003ec57805160ff19168380011785556200041d565b828001600101855582156200041d579182015b828111156200041c578251825591602001919060010190620003ff565b5b5090506200042c919062000430565b5090565b5b808211156200044b57600081600090555060010162000431565b5090565b60006200045e60208362000498565b91506200046b826200050e565b602082019050919050565b6000602082019050818103600083015262000491816200044f565b9050919050565b600082825260208201905092915050565b60006002820490506001821680620004c257607f821691505b60208210811415620004d957620004d8620004df565b5b50919050565b7f4e487b7100000000000000000000000000000000000000000000000000000000600052602260045260246000fd5b7f4f776e61626c653a2063616c6c6572206973206e6f7420746865206f776e6572600082015250565b6149aa80620005476000396000f3fe6080604052600436106102515760003560e01c80637501f74111610139578063a45ba8e7116100b6578063e985e9c51161007a578063e985e9c5146108a3578063ea05a8c6146108e0578063edec5f2714610909578063efbd73f414610932578063f2fde38b1461095b578063f6b381221461098457610251565b8063a45ba8e7146107bc578063a475b5dd146107e7578063aef6d4b114610812578063b88d4fde1461083d578063c87b56dd1461086657610251565b806395d89b41116100fd57806395d89b41146106d75780639c70b512146107025780639e6a1d7d1461072d578063a22cb46514610756578063a23a274b1461077f57610251565b80637501f74114610611578063771282f61461063c5780637ec4a659146106675780638da5cb5b1461069057806392642744146106bb57610251565b80633af32abf116101d25780635503a0e8116101965780635503a0e8146104ed5780635c475d421461051857806362b99ad4146105555780636352211e1461058057806370a08231146105bd578063715018a6146105fa57610251565b80633af32abf1461041e5780633ccfd60b1461045b57806342842e0e1461047257806344a0d68a1461049b5780634fdd43cb146104c457610251565b8063095ea7b311610219578063095ea7b31461034f57806313faede61461037857806316ba10e0146103a357806323b872dd146103cc5780632a3f300c146103f557610251565b806301ffc9a714610256578063047fc9aa14610293578063050021a2146102be57806306fdde03146102e7578063081812fc14610312575b600080fd5b34801561026257600080fd5b5061027d600480360381019061027891906134c5565b6109c1565b60405161028a9190613ba8565b60405180910390f35b34801561029f57600080fd5b506102a8610aa3565b6040516102b59190613ec5565b60405180910390f35b3480156102ca57600080fd5b506102e560048036038101906102e0919061349c565b610aa9565b005b3480156102f357600080fd5b506102fc610b42565b6040516103099190613bc3565b60405180910390f35b34801561031e57600080fd5b5061033960048036038101906103349190613558565b610bd4565b6040516103469190613b1f565b60405180910390f35b34801561035b57600080fd5b506103766004803603810190610371919061341b565b610c59565b005b34801561038457600080fd5b5061038d610d71565b60405161039a9190613ec5565b60405180910390f35b3480156103af57600080fd5b506103ca60048036038101906103c59190613517565b610d77565b005b3480156103d857600080fd5b506103f360048036038101906103ee9190613315565b610e0d565b005b34801561040157600080fd5b5061041c6004803603810190610417919061349c565b610e6d565b005b34801561042a57600080fd5b50610445600480360381019061044091906132b0565b610f06565b6040516104529190613ba8565b60405180910390f35b34801561046757600080fd5b50610470610fdb565b005b34801561047e57600080fd5b5061049960048036038101906104949190613315565b61110d565b005b3480156104a757600080fd5b506104c260048036038101906104bd9190613558565b61112d565b005b3480156104d057600080fd5b506104eb60048036038101906104e69190613517565b6111b3565b005b3480156104f957600080fd5b50610502611249565b60405161050f9190613bc3565b60405180910390f35b34801561052457600080fd5b5061053f600480360381019061053a9190613558565b6112d7565b60405161054c9190613b1f565b60405180910390f35b34801561056157600080fd5b5061056a611316565b6040516105779190613bc3565b60405180910390f35b34801561058c57600080fd5b506105a760048036038101906105a29190613558565b6113a4565b6040516105b49190613b1f565b60405180910390f35b3480156105c957600080fd5b506105e460048036038101906105df91906132b0565b611456565b6040516105f19190613ec5565b60405180910390f35b34801561060657600080fd5b5061060f61150e565b005b34801561061d57600080fd5b50610626611596565b6040516106339190613ec5565b60405180910390f35b34801561064857600080fd5b5061065161159c565b60405161065e9190613ec5565b60405180910390f35b34801561067357600080fd5b5061068e60048036038101906106899190613517565b6115ad565b005b34801561069c57600080fd5b506106a5611643565b6040516106b29190613b1f565b60405180910390f35b6106d560048036038101906106d09190613558565b61166d565b005b3480156106e357600080fd5b506106ec611905565b6040516106f99190613bc3565b60405180910390f35b34801561070e57600080fd5b50610717611997565b6040516107249190613ba8565b60405180910390f35b34801561073957600080fd5b50610754600480360381019061074f9190613558565b6119aa565b005b34801561076257600080fd5b5061077d600480360381019061077891906133df565b611a30565b005b34801561078b57600080fd5b506107a660048036038101906107a191906132b0565b611a46565b6040516107b39190613b86565b60405180910390f35b3480156107c857600080fd5b506107d1611b9d565b6040516107de9190613bc3565b60405180910390f35b3480156107f357600080fd5b506107fc611c2b565b6040516108099190613ba8565b60405180910390f35b34801561081e57600080fd5b50610827611c3e565b6040516108349190613ba8565b60405180910390f35b34801561084957600080fd5b50610864600480360381019061085f9190613364565b611c51565b005b34801561087257600080fd5b5061088d60048036038101906108889190613558565b611cb3565b60405161089a9190613bc3565b60405180910390f35b3480156108af57600080fd5b506108ca60048036038101906108c591906132d9565b611e0c565b6040516108d79190613ba8565b60405180910390f35b3480156108ec57600080fd5b506109076004803603810190610902919061349c565b611ea0565b005b34801561091557600080fd5b50610930600480360381019061092b9190613457565b611f39565b005b34801561093e57600080fd5b5061095960048036038101906109549190613581565b611fd9565b005b34801561096757600080fd5b50610982600480360381019061097d91906132b0565b61210f565b005b34801561099057600080fd5b506109ab60048036038101906109a691906132b0565b612207565b6040516109b89190613ec5565b60405180910390f35b60007f80ac58cd000000000000000000000000000000000000000000000000000000007bffffffffffffffffffffffffffffffffffffffffffffffffffffffff1916827bffffffffffffffffffffffffffffffffffffffffffffffffffffffff19161480610a8c57507f5b5e139f000000000000000000000000000000000000000000000000000000007bffffffffffffffffffffffffffffffffffffffffffffffffffffffff1916827bffffffffffffffffffffffffffffffffffffffffffffffffffffffff1916145b80610a9c5750610a9b8261221f565b5b9050919050565b600c5481565b610ab1612289565b73ffffffffffffffffffffffffffffffffffffffff16610acf611643565b73ffffffffffffffffffffffffffffffffffffffff1614610b25576040517f08c379a0000000000000000000000000000000000000000000000000000000008152600401610b1c90613dc5565b60405180910390fd5b80600e60016101000a81548160ff02191690831515021790555050565b606060008054610b51906141ce565b80601f0160208091040260200160405190810160405280929190818152602001828054610b7d906141ce565b8015610bca5780601f10610b9f57610100808354040283529160200191610bca565b820191906000526020600020905b815481529060010190602001808311610bad57829003601f168201915b5050505050905090565b6000610bdf82612291565b610c1e576040517f08c379a0000000000000000000000000000000000000000000000000000000008152600401610c1590613d85565b60405180910390fd5b6004600083815260200190815260200160002060009054906101000a900473ffffffffffffffffffffffffffffffffffffffff169050919050565b6000610c64826113a4565b90508073ffffffffffffffffffffffffffffffffffffffff168373ffffffffffffffffffffffffffffffffffffffff161415610cd5576040517f08c379a0000000000000000000000000000000000000000000000000000000008152600401610ccc90613e05565b60405180910390fd5b8073ffffffffffffffffffffffffffffffffffffffff16610cf4612289565b73ffffffffffffffffffffffffffffffffffffffff161480610d235750610d2281610d1d612289565b611e0c565b5b610d62576040517f08c379a0000000000000000000000000000000000000000000000000000000008152600401610d5990613ce5565b60405180910390fd5b610d6c83836122fd565b505050565b600b5481565b610d7f612289565b73ffffffffffffffffffffffffffffffffffffffff16610d9d611643565b73ffffffffffffffffffffffffffffffffffffffff1614610df3576040517f08c379a0000000000000000000000000000000000000000000000000000000008152600401610dea90613dc5565b60405180910390fd5b8060099080519060200190610e09929190612fc9565b5050565b610e1e610e18612289565b826123b6565b610e5d576040517f08c379a0000000000000000000000000000000000000000000000000000000008152600401610e5490613e25565b60405180910390fd5b610e68838383612494565b505050565b610e75612289565b73ffffffffffffffffffffffffffffffffffffffff16610e93611643565b73ffffffffffffffffffffffffffffffffffffffff1614610ee9576040517f08c379a0000000000000000000000000000000000000000000000000000000008152600401610ee090613dc5565b60405180910390fd5b80600e60006101000a81548160ff02191690831515021790555050565b600080600090505b600f80549050811015610fd0578273ffffffffffffffffffffffffffffffffffffffff16600f8281548110610f6c577f4e487b7100000000000000000000000000000000000000000000000000000000600052603260045260246000fd5b9060005260206000200160009054906101000a900473ffffffffffffffffffffffffffffffffffffffff1673ffffffffffffffffffffffffffffffffffffffff161415610fbd576001915050610fd6565b8080610fc890614231565b915050610f0e565b50600090505b919050565b610fe3612289565b73ffffffffffffffffffffffffffffffffffffffff16611001611643565b73ffffffffffffffffffffffffffffffffffffffff1614611057576040517f08c379a000000000000000000000000000000000000000000000000000000000815260040161104e90613dc5565b60405180910390fd5b6000611061611643565b73ffffffffffffffffffffffffffffffffffffffff164760405161108490613b0a565b60006040518083038185875af1925050503d80600081146110c1576040519150601f19603f3d011682016040523d82523d6000602084013e6110c6565b606091505b505090508061110a576040517f08c379a000000000000000000000000000000000000000000000000000000000815260040161110190613c65565b60405180910390fd5b50565b61112883838360405180602001604052806000815250611c51565b505050565b611135612289565b73ffffffffffffffffffffffffffffffffffffffff16611153611643565b73ffffffffffffffffffffffffffffffffffffffff16146111a9576040517f08c379a00000000000000000000000000000000000000000000000000000000081526004016111a090613dc5565b60405180910390fd5b80600b8190555050565b6111bb612289565b73ffffffffffffffffffffffffffffffffffffffff166111d9611643565b73ffffffffffffffffffffffffffffffffffffffff161461122f576040517f08c379a000000000000000000000000000000000000000000000000000000000815260040161122690613dc5565b60405180910390fd5b80600a9080519060200190611245929190612fc9565b5050565b60098054611256906141ce565b80601f0160208091040260200160405190810160405280929190818152602001828054611282906141ce565b80156112cf5780601f106112a4576101008083540402835291602001916112cf565b820191906000526020600020905b8154815290600101906020018083116112b257829003601f168201915b505050505081565b600f81815481106112e757600080fd5b906000526020600020016000915054906101000a900473ffffffffffffffffffffffffffffffffffffffff1681565b60088054611323906141ce565b80601f016020809104026020016040519081016040528092919081815260200182805461134f906141ce565b801561139c5780601f106113715761010080835404028352916020019161139c565b820191906000526020600020905b81548152906001019060200180831161137f57829003601f168201915b505050505081565b6000806002600084815260200190815260200160002060009054906101000a900473ffffffffffffffffffffffffffffffffffffffff169050600073ffffffffffffffffffffffffffffffffffffffff168173ffffffffffffffffffffffffffffffffffffffff16141561144d576040517f08c379a000000000000000000000000000000000000000000000000000000000815260040161144490613d25565b60405180910390fd5b80915050919050565b60008073ffffffffffffffffffffffffffffffffffffffff168273ffffffffffffffffffffffffffffffffffffffff1614156114c7576040517f08c379a00000000000000000000000000000000000000000000000000000000081526004016114be90613d05565b60405180910390fd5b600360008373ffffffffffffffffffffffffffffffffffffffff1673ffffffffffffffffffffffffffffffffffffffff168152602001908152602001600020549050919050565b611516612289565b73ffffffffffffffffffffffffffffffffffffffff16611534611643565b73ffffffffffffffffffffffffffffffffffffffff161461158a576040517f08c379a000000000000000000000000000000000000000000000000000000000815260040161158190613dc5565b60405180910390fd5b61159460006126fb565b565b600d5481565b60006115a860076127c1565b905090565b6115b5612289565b73ffffffffffffffffffffffffffffffffffffffff166115d3611643565b73ffffffffffffffffffffffffffffffffffffffff1614611629576040517f08c379a000000000000000000000000000000000000000000000000000000000815260040161162090613dc5565b60405180910390fd5b806008908051906020019061163f929190612fc9565b5050565b6000600660009054906101000a900473ffffffffffffffffffffffffffffffffffffffff16905090565b806000811180156116805750600d548111155b6116bf576040517f08c379a00000000000000000000000000000000000000000000000000000000081526004016116b690613da5565b60405180910390fd5b600c54816116cd60076127c1565b6116d79190614003565b1115611718576040517f08c379a000000000000000000000000000000000000000000000000000000000815260040161170f90613de5565b60405180910390fd5b611720611643565b73ffffffffffffffffffffffffffffffffffffffff163373ffffffffffffffffffffffffffffffffffffffff16146118575760011515600e60029054906101000a900460ff16151514156118565761177733610f06565b6117b6576040517f08c379a00000000000000000000000000000000000000000000000000000000081526004016117ad90613d45565b60405180910390fd5b6000601060003373ffffffffffffffffffffffffffffffffffffffff1673ffffffffffffffffffffffffffffffffffffffff168152602001908152602001600020549050600d5483826118099190614003565b111561184a576040517f08c379a000000000000000000000000000000000000000000000000000000000815260040161184190613e45565b60405180910390fd5b61185433846127cf565b505b5b600e60019054906101000a900460ff16156118a7576040517f08c379a000000000000000000000000000000000000000000000000000000000815260040161189e90613e65565b60405180910390fd5b81600b546118b5919061408a565b3410156118f7576040517f08c379a00000000000000000000000000000000000000000000000000000000081526004016118ee90613ea5565b60405180910390fd5b61190133836127cf565b5050565b606060018054611914906141ce565b80601f0160208091040260200160405190810160405280929190818152602001828054611940906141ce565b801561198d5780601f106119625761010080835404028352916020019161198d565b820191906000526020600020905b81548152906001019060200180831161197057829003601f168201915b5050505050905090565b600e60029054906101000a900460ff1681565b6119b2612289565b73ffffffffffffffffffffffffffffffffffffffff166119d0611643565b73ffffffffffffffffffffffffffffffffffffffff1614611a26576040517f08c379a0000000000000000000000000000000000000000000000000000000008152600401611a1d90613dc5565b60405180910390fd5b80600d8190555050565b611a42611a3b612289565b838361280f565b5050565b60606000611a5383611456565b905060008167ffffffffffffffff811115611a97577f4e487b7100000000000000000000000000000000000000000000000000000000600052604160045260246000fd5b604051908082528060200260200182016040528015611ac55781602001602082028036833780820191505090505b50905060006001905060005b8381108015611ae25750600c548211155b15611b91576000611af2836113a4565b90508673ffffffffffffffffffffffffffffffffffffffff168173ffffffffffffffffffffffffffffffffffffffff161415611b7d5782848381518110611b62577f4e487b7100000000000000000000000000000000000000000000000000000000600052603260045260246000fd5b6020026020010181815250508180611b7990614231565b9250505b8280611b8890614231565b93505050611ad1565b82945050505050919050565b600a8054611baa906141ce565b80601f0160208091040260200160405190810160405280929190818152602001828054611bd6906141ce565b8015611c235780601f10611bf857610100808354040283529160200191611c23565b820191906000526020600020905b815481529060010190602001808311611c0657829003601f168201915b505050505081565b600e60009054906101000a900460ff1681565b600e60019054906101000a900460ff1681565b611c62611c5c612289565b836123b6565b611ca1576040517f08c379a0000000000000000000000000000000000000000000000000000000008152600401611c9890613e25565b60405180910390fd5b611cad8484848461297c565b50505050565b6060611cbe82612291565b611cfd576040517f08c379a0000000000000000000000000000000000000000000000000000000008152600401611cf490613e85565b60405180910390fd5b60001515600e60009054906101000a900460ff1615151415611dab57600a8054611d26906141ce565b80601f0160208091040260200160405190810160405280929190818152602001828054611d52906141ce565b8015611d9f5780601f10611d7457610100808354040283529160200191611d9f565b820191906000526020600020905b815481529060010190602001808311611d8257829003601f168201915b50505050509050611e07565b6000611db56129d8565b90506000815111611dd55760405180602001604052806000815250611e03565b80611ddf846129ef565b6009604051602001611df393929190613ad9565b6040516020818303038152906040525b9150505b919050565b6000600560008473ffffffffffffffffffffffffffffffffffffffff1673ffffffffffffffffffffffffffffffffffffffff16815260200190815260200160002060008373ffffffffffffffffffffffffffffffffffffffff1673ffffffffffffffffffffffffffffffffffffffff16815260200190815260200160002060009054906101000a900460ff16905092915050565b611ea8612289565b73ffffffffffffffffffffffffffffffffffffffff16611ec6611643565b73ffffffffffffffffffffffffffffffffffffffff1614611f1c576040517f08c379a0000000000000000000000000000000000000000000000000000000008152600401611f1390613dc5565b60405180910390fd5b80600e60026101000a81548160ff02191690831515021790555050565b611f41612289565b73ffffffffffffffffffffffffffffffffffffffff16611f5f611643565b73ffffffffffffffffffffffffffffffffffffffff1614611fb5576040517f08c379a0000000000000000000000000000000000000000000000000000000008152600401611fac90613dc5565b60405180910390fd5b600f6000611fc3919061304f565b8181600f9190611fd4929190613070565b505050565b81600081118015611fec5750600d548111155b61202b576040517f08c379a000000000000000000000000000000000000000000000000000000000815260040161202290613da5565b60405180910390fd5b600c548161203960076127c1565b6120439190614003565b1115612084576040517f08c379a000000000000000000000000000000000000000000000000000000000815260040161207b90613de5565b60405180910390fd5b61208c612289565b73ffffffffffffffffffffffffffffffffffffffff166120aa611643565b73ffffffffffffffffffffffffffffffffffffffff1614612100576040517f08c379a00000000000000000000000000000000000000000000000000000000081526004016120f790613dc5565b60405180910390fd5b61210a82846127cf565b505050565b612117612289565b73ffffffffffffffffffffffffffffffffffffffff16612135611643565b73ffffffffffffffffffffffffffffffffffffffff161461218b576040517f08c379a000000000000000000000000000000000000000000000000000000000815260040161218290613dc5565b60405180910390fd5b600073ffffffffffffffffffffffffffffffffffffffff168173ffffffffffffffffffffffffffffffffffffffff1614156121fb576040517f08c379a00000000000000000000000000000000000000000000000000000000081526004016121f290613c05565b60405180910390fd5b612204816126fb565b50565b60106020528060005260406000206000915090505481565b60007f01ffc9a7000000000000000000000000000000000000000000000000000000007bffffffffffffffffffffffffffffffffffffffffffffffffffffffff1916827bffffffffffffffffffffffffffffffffffffffffffffffffffffffff1916149050919050565b600033905090565b60008073ffffffffffffffffffffffffffffffffffffffff166002600084815260200190815260200160002060009054906101000a900473ffffffffffffffffffffffffffffffffffffffff1673ffffffffffffffffffffffffffffffffffffffff1614159050919050565b816004600083815260200190815260200160002060006101000a81548173ffffffffffffffffffffffffffffffffffffffff021916908373ffffffffffffffffffffffffffffffffffffffff160217905550808273ffffffffffffffffffffffffffffffffffffffff16612370836113a4565b73ffffffffffffffffffffffffffffffffffffffff167f8c5be1e5ebec7d5bd14f71427d1e84f3dd0314c0f7b2291e5b200ac8c7c3b92560405160405180910390a45050565b60006123c182612291565b612400576040517f08c379a00000000000000000000000000000000000000000000000000000000081526004016123f790613cc5565b60405180910390fd5b600061240b836113a4565b90508073ffffffffffffffffffffffffffffffffffffffff168473ffffffffffffffffffffffffffffffffffffffff16148061247a57508373ffffffffffffffffffffffffffffffffffffffff1661246284610bd4565b73ffffffffffffffffffffffffffffffffffffffff16145b8061248b575061248a8185611e0c565b5b91505092915050565b8273ffffffffffffffffffffffffffffffffffffffff166124b4826113a4565b73ffffffffffffffffffffffffffffffffffffffff161461250a576040517f08c379a000000000000000000000000000000000000000000000000000000000815260040161250190613c25565b60405180910390fd5b600073ffffffffffffffffffffffffffffffffffffffff168273ffffffffffffffffffffffffffffffffffffffff16141561257a576040517f08c379a000000000000000000000000000000000000000000000000000000000815260040161257190613c85565b60405180910390fd5b612585838383612b9c565b6125906000826122fd565b6001600360008573ffffffffffffffffffffffffffffffffffffffff1673ffffffffffffffffffffffffffffffffffffffff16815260200190815260200160002060008282546125e091906140e4565b925050819055506001600360008473ffffffffffffffffffffffffffffffffffffffff1673ffffffffffffffffffffffffffffffffffffffff16815260200190815260200160002060008282546126379190614003565b92505081905550816002600083815260200190815260200160002060006101000a81548173ffffffffffffffffffffffffffffffffffffffff021916908373ffffffffffffffffffffffffffffffffffffffff160217905550808273ffffffffffffffffffffffffffffffffffffffff168473ffffffffffffffffffffffffffffffffffffffff167fddf252ad1be2c89b69c2b068fc378daa952ba7f163c4a11628f55a4df523b3ef60405160405180910390a46126f6838383612ba1565b505050565b6000600660009054906101000a900473ffffffffffffffffffffffffffffffffffffffff16905081600660006101000a81548173ffffffffffffffffffffffffffffffffffffffff021916908373ffffffffffffffffffffffffffffffffffffffff1602179055508173ffffffffffffffffffffffffffffffffffffffff168173ffffffffffffffffffffffffffffffffffffffff167f8be0079c531659141344cd1fd0a4f28419497f9722a3daafe3b4186f6b6457e060405160405180910390a35050565b600081600001549050919050565b60005b8181101561280a576127e46007612ba6565b6127f7836127f260076127c1565b612bbc565b808061280290614231565b9150506127d2565b505050565b8173ffffffffffffffffffffffffffffffffffffffff168373ffffffffffffffffffffffffffffffffffffffff16141561287e576040517f08c379a000000000000000000000000000000000000000000000000000000000815260040161287590613ca5565b60405180910390fd5b80600560008573ffffffffffffffffffffffffffffffffffffffff1673ffffffffffffffffffffffffffffffffffffffff16815260200190815260200160002060008473ffffffffffffffffffffffffffffffffffffffff1673ffffffffffffffffffffffffffffffffffffffff16815260200190815260200160002060006101000a81548160ff0219169083151502179055508173ffffffffffffffffffffffffffffffffffffffff168373ffffffffffffffffffffffffffffffffffffffff167f17307eab39ab6107e8899845ad3d59bd9653f200f220920489ca2b5937696c318360405161296f9190613ba8565b60405180910390a3505050565b612987848484612494565b61299384848484612bda565b6129d2576040517f08c379a00000000000000000000000000000000000000000000000000000000081526004016129c990613be5565b60405180910390fd5b50505050565b606060405180602001604052806000815250905090565b60606000821415612a37576040518060400160405280600181526020017f30000000000000000000000000000000000000000000000000000000000000008152509050612b97565b600082905060005b60008214612a69578080612a5290614231565b915050600a82612a629190614059565b9150612a3f565b60008167ffffffffffffffff811115612aab577f4e487b7100000000000000000000000000000000000000000000000000000000600052604160045260246000fd5b6040519080825280601f01601f191660200182016040528015612add5781602001600182028036833780820191505090505b5090505b60008514612b9057600182612af691906140e4565b9150600a85612b05919061427a565b6030612b119190614003565b60f81b818381518110612b4d577f4e487b7100000000000000000000000000000000000000000000000000000000600052603260045260246000fd5b60200101907effffffffffffffffffffffffffffffffffffffffffffffffffffffffffffff1916908160001a905350600a85612b899190614059565b9450612ae1565b8093505050505b919050565b505050565b505050565b6001816000016000828254019250508190555050565b612bd6828260405180602001604052806000815250612d71565b5050565b6000612bfb8473ffffffffffffffffffffffffffffffffffffffff16612dcc565b15612d64578373ffffffffffffffffffffffffffffffffffffffff1663150b7a02612c24612289565b8786866040518563ffffffff1660e01b8152600401612c469493929190613b3a565b602060405180830381600087803b158015612c6057600080fd5b505af1925050508015612c9157506040513d601f19601f82011682018060405250810190612c8e91906134ee565b60015b612d14573d8060008114612cc1576040519150601f19603f3d011682016040523d82523d6000602084013e612cc6565b606091505b50600081511415612d0c576040517f08c379a0000000000000000000000000000000000000000000000000000000008152600401612d0390613be5565b60405180910390fd5b805181602001fd5b63150b7a0260e01b7bffffffffffffffffffffffffffffffffffffffffffffffffffffffff1916817bffffffffffffffffffffffffffffffffffffffffffffffffffffffff191614915050612d69565b600190505b949350505050565b612d7b8383612def565b612d886000848484612bda565b612dc7576040517f08c379a0000000000000000000000000000000000000000000000000000000008152600401612dbe90613be5565b60405180910390fd5b505050565b6000808273ffffffffffffffffffffffffffffffffffffffff163b119050919050565b600073ffffffffffffffffffffffffffffffffffffffff168273ffffffffffffffffffffffffffffffffffffffff161415612e5f576040517f08c379a0000000000000000000000000000000000000000000000000000000008152600401612e5690613d65565b60405180910390fd5b612e6881612291565b15612ea8576040517f08c379a0000000000000000000000000000000000000000000000000000000008152600401612e9f90613c45565b60405180910390fd5b612eb460008383612b9c565b6001600360008473ffffffffffffffffffffffffffffffffffffffff1673ffffffffffffffffffffffffffffffffffffffff1681526020019081526020016000206000828254612f049190614003565b92505081905550816002600083815260200190815260200160002060006101000a81548173ffffffffffffffffffffffffffffffffffffffff021916908373ffffffffffffffffffffffffffffffffffffffff160217905550808273ffffffffffffffffffffffffffffffffffffffff16600073ffffffffffffffffffffffffffffffffffffffff167fddf252ad1be2c89b69c2b068fc378daa952ba7f163c4a11628f55a4df523b3ef60405160405180910390a4612fc560008383612ba1565b5050565b828054612fd5906141ce565b90600052602060002090601f016020900481019282612ff7576000855561303e565b82601f1061301057805160ff191683800117855561303e565b8280016001018555821561303e579182015b8281111561303d578251825591602001919060010190613022565b5b50905061304b9190613110565b5090565b508054600082559060005260206000209081019061306d9190613110565b50565b8280548282559060005260206000209081019282156130ff579160200282015b828111156130fe57823573ffffffffffffffffffffffffffffffffffffffff168260006101000a81548173ffffffffffffffffffffffffffffffffffffffff021916908373ffffffffffffffffffffffffffffffffffffffff16021790555091602001919060010190613090565b5b50905061310c9190613110565b5090565b5b80821115613129576000816000905550600101613111565b5090565b600061314061313b84613f05565b613ee0565b90508281526020810184848401111561315857600080fd5b61316384828561418c565b509392505050565b600061317e61317984613f36565b613ee0565b90508281526020810184848401111561319657600080fd5b6131a184828561418c565b509392505050565b6000813590506131b881614918565b92915050565b60008083601f8401126131d057600080fd5b8235905067ffffffffffffffff8111156131e957600080fd5b60208301915083602082028301111561320157600080fd5b9250929050565b6000813590506132178161492f565b92915050565b60008135905061322c81614946565b92915050565b60008151905061324181614946565b92915050565b600082601f83011261325857600080fd5b813561326884826020860161312d565b91505092915050565b600082601f83011261328257600080fd5b813561329284826020860161316b565b91505092915050565b6000813590506132aa8161495d565b92915050565b6000602082840312156132c257600080fd5b60006132d0848285016131a9565b91505092915050565b600080604083850312156132ec57600080fd5b60006132fa858286016131a9565b925050602061330b858286016131a9565b9150509250929050565b60008060006060848603121561332a57600080fd5b6000613338868287016131a9565b9350506020613349868287016131a9565b925050604061335a8682870161329b565b9150509250925092565b6000806000806080858703121561337a57600080fd5b6000613388878288016131a9565b9450506020613399878288016131a9565b93505060406133aa8782880161329b565b925050606085013567ffffffffffffffff8111156133c757600080fd5b6133d387828801613247565b91505092959194509250565b600080604083850312156133f257600080fd5b6000613400858286016131a9565b925050602061341185828601613208565b9150509250929050565b6000806040838503121561342e57600080fd5b600061343c858286016131a9565b925050602061344d8582860161329b565b9150509250929050565b6000806020838503121561346a57600080fd5b600083013567ffffffffffffffff81111561348457600080fd5b613490858286016131be565b92509250509250929050565b6000602082840312156134ae57600080fd5b60006134bc84828501613208565b91505092915050565b6000602082840312156134d757600080fd5b60006134e58482850161321d565b91505092915050565b60006020828403121561350057600080fd5b600061350e84828501613232565b91505092915050565b60006020828403121561352957600080fd5b600082013567ffffffffffffffff81111561354357600080fd5b61354f84828501613271565b91505092915050565b60006020828403121561356a57600080fd5b60006135788482850161329b565b91505092915050565b6000806040838503121561359457600080fd5b60006135a28582860161329b565b92505060206135b3858286016131a9565b9150509250929050565b60006135c98383613abb565b60208301905092915050565b6135de81614118565b82525050565b60006135ef82613f8c565b6135f98185613fba565b935061360483613f67565b8060005b8381101561363557815161361c88826135bd565b975061362783613fad565b925050600181019050613608565b5085935050505092915050565b61364b8161412a565b82525050565b600061365c82613f97565b6136668185613fcb565b935061367681856020860161419b565b61367f81614367565b840191505092915050565b600061369582613fa2565b61369f8185613fe7565b93506136af81856020860161419b565b6136b881614367565b840191505092915050565b60006136ce82613fa2565b6136d88185613ff8565b93506136e881856020860161419b565b80840191505092915050565b60008154613701816141ce565b61370b8186613ff8565b9450600182166000811461372657600181146137375761376a565b60ff1983168652818601935061376a565b61374085613f77565b60005b8381101561376257815481890152600182019150602081019050613743565b838801955050505b50505092915050565b6000613780603283613fe7565b915061378b82614378565b604082019050919050565b60006137a3602683613fe7565b91506137ae826143c7565b604082019050919050565b60006137c6602583613fe7565b91506137d182614416565b604082019050919050565b60006137e9601c83613fe7565b91506137f482614465565b602082019050919050565b600061380c601483613fe7565b91506138178261448e565b602082019050919050565b600061382f602483613fe7565b915061383a826144b7565b604082019050919050565b6000613852601983613fe7565b915061385d82614506565b602082019050919050565b6000613875602c83613fe7565b91506138808261452f565b604082019050919050565b6000613898603883613fe7565b91506138a38261457e565b604082019050919050565b60006138bb602a83613fe7565b91506138c6826145cd565b604082019050919050565b60006138de602983613fe7565b91506138e98261461c565b604082019050919050565b6000613901601783613fe7565b915061390c8261466b565b602082019050919050565b6000613924602083613fe7565b915061392f82614694565b602082019050919050565b6000613947602c83613fe7565b9150613952826146bd565b604082019050919050565b600061396a602983613fe7565b91506139758261470c565b604082019050919050565b600061398d602083613fe7565b91506139988261475b565b602082019050919050565b60006139b0601483613fe7565b91506139bb82614784565b602082019050919050565b60006139d3602183613fe7565b91506139de826147ad565b604082019050919050565b60006139f6600083613fdc565b9150613a01826147fc565b600082019050919050565b6000613a19603183613fe7565b9150613a24826147ff565b604082019050919050565b6000613a3c601383613fe7565b9150613a478261484e565b602082019050919050565b6000613a5f600f83613fe7565b9150613a6a82614877565b602082019050919050565b6000613a82601d83613fe7565b9150613a8d826148a0565b602082019050919050565b6000613aa5603083613fe7565b9150613ab0826148c9565b604082019050919050565b613ac481614182565b82525050565b613ad381614182565b82525050565b6000613ae582866136c3565b9150613af182856136c3565b9150613afd82846136f4565b9150819050949350505050565b6000613b15826139e9565b9150819050919050565b6000602082019050613b3460008301846135d5565b92915050565b6000608082019050613b4f60008301876135d5565b613b5c60208301866135d5565b613b696040830185613aca565b8181036060830152613b7b8184613651565b905095945050505050565b60006020820190508181036000830152613ba081846135e4565b905092915050565b6000602082019050613bbd6000830184613642565b92915050565b60006020820190508181036000830152613bdd818461368a565b905092915050565b60006020820190508181036000830152613bfe81613773565b9050919050565b60006020820190508181036000830152613c1e81613796565b9050919050565b60006020820190508181036000830152613c3e816137b9565b9050919050565b60006020820190508181036000830152613c5e816137dc565b9050919050565b60006020820190508181036000830152613c7e816137ff565b9050919050565b60006020820190508181036000830152613c9e81613822565b9050919050565b60006020820190508181036000830152613cbe81613845565b9050919050565b60006020820190508181036000830152613cde81613868565b9050919050565b60006020820190508181036000830152613cfe8161388b565b9050919050565b60006020820190508181036000830152613d1e816138ae565b9050919050565b60006020820190508181036000830152613d3e816138d1565b9050919050565b60006020820190508181036000830152613d5e816138f4565b9050919050565b60006020820190508181036000830152613d7e81613917565b9050919050565b60006020820190508181036000830152613d9e8161393a565b9050919050565b60006020820190508181036000830152613dbe8161395d565b9050919050565b60006020820190508181036000830152613dde81613980565b9050919050565b60006020820190508181036000830152613dfe816139a3565b9050919050565b60006020820190508181036000830152613e1e816139c6565b9050919050565b60006020820190508181036000830152613e3e81613a0c565b9050919050565b60006020820190508181036000830152613e5e81613a2f565b9050919050565b60006020820190508181036000830152613e7e81613a52565b9050919050565b60006020820190508181036000830152613e9e81613a75565b9050919050565b60006020820190508181036000830152613ebe81613a98565b9050919050565b6000602082019050613eda6000830184613aca565b92915050565b6000613eea613efb565b9050613ef68282614200565b919050565b6000604051905090565b600067ffffffffffffffff821115613f2057613f1f614338565b5b613f2982614367565b9050602081019050919050565b600067ffffffffffffffff821115613f5157613f50614338565b5b613f5a82614367565b9050602081019050919050565b6000819050602082019050919050565b60008190508160005260206000209050919050565b600081519050919050565b600081519050919050565b600081519050919050565b6000602082019050919050565b600082825260208201905092915050565b600082825260208201905092915050565b600081905092915050565b600082825260208201905092915050565b600081905092915050565b600061400e82614182565b915061401983614182565b9250827fffffffffffffffffffffffffffffffffffffffffffffffffffffffffffffffff0382111561404e5761404d6142ab565b5b828201905092915050565b600061406482614182565b915061406f83614182565b92508261407f5761407e6142da565b5b828204905092915050565b600061409582614182565b91506140a083614182565b9250817fffffffffffffffffffffffffffffffffffffffffffffffffffffffffffffffff04831182151516156140d9576140d86142ab565b5b828202905092915050565b60006140ef82614182565b91506140fa83614182565b92508282101561410d5761410c6142ab565b5b828203905092915050565b600061412382614162565b9050919050565b60008115159050919050565b60007fffffffff0000000000000000000000000000000000000000000000000000000082169050919050565b600073ffffffffffffffffffffffffffffffffffffffff82169050919050565b6000819050919050565b82818337600083830152505050565b60005b838110156141b957808201518184015260208101905061419e565b838111156141c8576000848401525b50505050565b600060028204905060018216806141e657607f821691505b602082108114156141fa576141f9614309565b5b50919050565b61420982614367565b810181811067ffffffffffffffff8211171561422857614227614338565b5b80604052505050565b600061423c82614182565b91507fffffffffffffffffffffffffffffffffffffffffffffffffffffffffffffffff82141561426f5761426e6142ab565b5b600182019050919050565b600061428582614182565b915061429083614182565b9250826142a05761429f6142da565b5b828206905092915050565b7f4e487b7100000000000000000000000000000000000000000000000000000000600052601160045260246000fd5b7f4e487b7100000000000000000000000000000000000000000000000000000000600052601260045260246000fd5b7f4e487b7100000000000000000000000000000000000000000000000000000000600052602260045260246000fd5b7f4e487b7100000000000000000000000000000000000000000000000000000000600052604160045260246000fd5b6000601f19601f8301169050919050565b7f4552433732313a207472616e7366657220746f206e6f6e20455243373231526560008201527f63656976657220696d706c656d656e7465720000000000000000000000000000602082015250565b7f4f776e61626c653a206e6577206f776e657220697320746865207a65726f206160008201527f6464726573730000000000000000000000000000000000000000000000000000602082015250565b7f4552433732313a207472616e736665722066726f6d20696e636f72726563742060008201527f6f776e6572000000000000000000000000000000000000000000000000000000602082015250565b7f4552433732313a20746f6b656e20616c7265616479206d696e74656400000000600082015250565b7f4661696c656420746f2073656e64204574686572000000000000000000000000600082015250565b7f4552433732313a207472616e7366657220746f20746865207a65726f2061646460008201527f7265737300000000000000000000000000000000000000000000000000000000602082015250565b7f4552433732313a20617070726f766520746f2063616c6c657200000000000000600082015250565b7f4552433732313a206f70657261746f7220717565727920666f72206e6f6e657860008201527f697374656e7420746f6b656e0000000000000000000000000000000000000000602082015250565b7f4552433732313a20617070726f76652063616c6c6572206973206e6f74206f7760008201527f6e6572206e6f7220617070726f76656420666f7220616c6c0000000000000000602082015250565b7f4552433732313a2062616c616e636520717565727920666f7220746865207a6560008201527f726f206164647265737300000000000000000000000000000000000000000000602082015250565b7f4552433732313a206f776e657220717565727920666f72206e6f6e657869737460008201527f656e7420746f6b656e0000000000000000000000000000000000000000000000602082015250565b7f55736572206973206e6f742057686974656c6973746564000000000000000000600082015250565b7f4552433732313a206d696e7420746f20746865207a65726f2061646472657373600082015250565b7f4552433732313a20617070726f76656420717565727920666f72206e6f6e657860008201527f697374656e7420746f6b656e0000000000000000000000000000000000000000602082015250565b7f596f75206d6179206d696e7420757020746f20352043686573734d617465732060008201527f617420612074696d650000000000000000000000000000000000000000000000602082015250565b7f4f776e61626c653a2063616c6c6572206973206e6f7420746865206f776e6572600082015250565b7f4d617820537570706c7920657863656564656421000000000000000000000000600082015250565b7f4552433732313a20617070726f76616c20746f2063757272656e74206f776e6560008201527f7200000000000000000000000000000000000000000000000000000000000000602082015250565b50565b7f4552433732313a207472616e736665722063616c6c6572206973206e6f74206f60008201527f776e6572206e6f7220617070726f766564000000000000000000000000000000602082015250565b7f4d696e74206c696d697420657863656564656400000000000000000000000000600082015250565b7f436f6e7472616374205061757365640000000000000000000000000000000000600082015250565b7f517565727920666f72206e6f6e6578697374656e7420546f6b656e4944000000600082015250565b7f496e73756666696369656e742046756e647320546f20636f6d706c657465207960008201527f6f7572205472616e73616374696f6e2100000000000000000000000000000000602082015250565b61492181614118565b811461492c57600080fd5b50565b6149388161412a565b811461494357600080fd5b50565b61494f81614136565b811461495a57600080fd5b50565b61496681614182565b811461497157600080fd5b5056fea2646970667358221220a3b95c469cfb0576f7f8026f8c4d25513f2e1e99ed7f31e5b931b8889e2e5ac164736f6c63430008040033",
    "linkReferences": {},
    "deployedLinkReferences": {}
}